{
  "address": "0x7A9e8eAdCD877101cfCC43e1917EF3a1caa05Ffd",
  "abi": [
    {
      "inputs": [
        {
          "internalType": "contract ENS",
          "name": "_ens",
          "type": "address"
        },
        {
          "internalType": "bytes32",
          "name": "_baseNode",
          "type": "bytes32"
        }
      ],
      "stateMutability": "nonpayable",
      "type": "constructor"
    },
    {
      "anonymous": false,
      "inputs": [
        {
          "indexed": true,
          "internalType": "address",
          "name": "owner",
          "type": "address"
        },
        {
          "indexed": true,
          "internalType": "address",
          "name": "approved",
          "type": "address"
        },
        {
          "indexed": true,
          "internalType": "uint256",
          "name": "tokenId",
          "type": "uint256"
        }
      ],
      "name": "Approval",
      "type": "event"
    },
    {
      "anonymous": false,
      "inputs": [
        {
          "indexed": true,
          "internalType": "address",
          "name": "owner",
          "type": "address"
        },
        {
          "indexed": true,
          "internalType": "address",
          "name": "operator",
          "type": "address"
        },
        {
          "indexed": false,
          "internalType": "bool",
          "name": "approved",
          "type": "bool"
        }
      ],
      "name": "ApprovalForAll",
      "type": "event"
    },
    {
      "anonymous": false,
      "inputs": [
        {
          "indexed": true,
          "internalType": "address",
          "name": "controller",
          "type": "address"
        }
      ],
      "name": "ControllerAdded",
      "type": "event"
    },
    {
      "anonymous": false,
      "inputs": [
        {
          "indexed": true,
          "internalType": "address",
          "name": "controller",
          "type": "address"
        }
      ],
      "name": "ControllerRemoved",
      "type": "event"
    },
    {
      "anonymous": false,
      "inputs": [
        {
          "indexed": true,
          "internalType": "uint256",
          "name": "id",
          "type": "uint256"
        },
        {
          "indexed": true,
          "internalType": "address",
          "name": "owner",
          "type": "address"
        },
        {
          "indexed": false,
          "internalType": "uint256",
          "name": "expires",
          "type": "uint256"
        }
      ],
      "name": "NameMigrated",
      "type": "event"
    },
    {
      "anonymous": false,
      "inputs": [
        {
          "indexed": true,
          "internalType": "uint256",
          "name": "id",
          "type": "uint256"
        },
        {
          "indexed": true,
          "internalType": "address",
          "name": "owner",
          "type": "address"
        },
        {
          "indexed": false,
          "internalType": "uint256",
          "name": "expires",
          "type": "uint256"
        }
      ],
      "name": "NameRegistered",
      "type": "event"
    },
    {
      "anonymous": false,
      "inputs": [
        {
          "indexed": true,
          "internalType": "uint256",
          "name": "id",
          "type": "uint256"
        },
        {
          "indexed": false,
          "internalType": "uint256",
          "name": "expires",
          "type": "uint256"
        }
      ],
      "name": "NameRenewed",
      "type": "event"
    },
    {
      "anonymous": false,
      "inputs": [
        {
          "indexed": true,
          "internalType": "address",
          "name": "previousOwner",
          "type": "address"
        },
        {
          "indexed": true,
          "internalType": "address",
          "name": "newOwner",
          "type": "address"
        }
      ],
      "name": "OwnershipTransferred",
      "type": "event"
    },
    {
      "anonymous": false,
      "inputs": [
        {
          "indexed": true,
          "internalType": "address",
          "name": "from",
          "type": "address"
        },
        {
          "indexed": true,
          "internalType": "address",
          "name": "to",
          "type": "address"
        },
        {
          "indexed": true,
          "internalType": "uint256",
          "name": "tokenId",
          "type": "uint256"
        }
      ],
      "name": "Transfer",
      "type": "event"
    },
    {
      "inputs": [],
      "name": "GRACE_PERIOD",
      "outputs": [
        {
          "internalType": "uint256",
          "name": "",
          "type": "uint256"
        }
      ],
      "stateMutability": "view",
      "type": "function"
    },
    {
      "inputs": [
        {
          "internalType": "address",
          "name": "controller",
          "type": "address"
        }
      ],
      "name": "addController",
      "outputs": [],
      "stateMutability": "nonpayable",
      "type": "function"
    },
    {
      "inputs": [
        {
          "internalType": "address",
          "name": "to",
          "type": "address"
        },
        {
          "internalType": "uint256",
          "name": "tokenId",
          "type": "uint256"
        }
      ],
      "name": "approve",
      "outputs": [],
      "stateMutability": "nonpayable",
      "type": "function"
    },
    {
      "inputs": [
        {
          "internalType": "uint256",
          "name": "id",
          "type": "uint256"
        }
      ],
      "name": "available",
      "outputs": [
        {
          "internalType": "bool",
          "name": "",
          "type": "bool"
        }
      ],
      "stateMutability": "view",
      "type": "function"
    },
    {
      "inputs": [
        {
          "internalType": "address",
          "name": "owner",
          "type": "address"
        }
      ],
      "name": "balanceOf",
      "outputs": [
        {
          "internalType": "uint256",
          "name": "",
          "type": "uint256"
        }
      ],
      "stateMutability": "view",
      "type": "function"
    },
    {
      "inputs": [],
      "name": "baseNode",
      "outputs": [
        {
          "internalType": "bytes32",
          "name": "",
          "type": "bytes32"
        }
      ],
      "stateMutability": "view",
      "type": "function"
    },
    {
      "inputs": [
        {
          "internalType": "address",
          "name": "",
          "type": "address"
        }
      ],
      "name": "controllers",
      "outputs": [
        {
          "internalType": "bool",
          "name": "",
          "type": "bool"
        }
      ],
      "stateMutability": "view",
      "type": "function"
    },
    {
      "inputs": [],
      "name": "ens",
      "outputs": [
        {
          "internalType": "contract ENS",
          "name": "",
          "type": "address"
        }
      ],
      "stateMutability": "view",
      "type": "function"
    },
    {
      "inputs": [
        {
          "internalType": "uint256",
          "name": "tokenId",
          "type": "uint256"
        }
      ],
      "name": "getApproved",
      "outputs": [
        {
          "internalType": "address",
          "name": "",
          "type": "address"
        }
      ],
      "stateMutability": "view",
      "type": "function"
    },
    {
      "inputs": [
        {
          "internalType": "address",
          "name": "owner",
          "type": "address"
        },
        {
          "internalType": "address",
          "name": "operator",
          "type": "address"
        }
      ],
      "name": "isApprovedForAll",
      "outputs": [
        {
          "internalType": "bool",
          "name": "",
          "type": "bool"
        }
      ],
      "stateMutability": "view",
      "type": "function"
    },
    {
      "inputs": [],
      "name": "isOwner",
      "outputs": [
        {
          "internalType": "bool",
          "name": "",
          "type": "bool"
        }
      ],
      "stateMutability": "view",
      "type": "function"
    },
    {
      "inputs": [
        {
          "internalType": "uint256",
          "name": "id",
          "type": "uint256"
        }
      ],
      "name": "nameExpires",
      "outputs": [
        {
          "internalType": "uint256",
          "name": "",
          "type": "uint256"
        }
      ],
      "stateMutability": "view",
      "type": "function"
    },
    {
      "inputs": [],
      "name": "owner",
      "outputs": [
        {
          "internalType": "address",
          "name": "",
          "type": "address"
        }
      ],
      "stateMutability": "view",
      "type": "function"
    },
    {
      "inputs": [
        {
          "internalType": "uint256",
          "name": "tokenId",
          "type": "uint256"
        }
      ],
      "name": "ownerOf",
      "outputs": [
        {
          "internalType": "address",
          "name": "",
          "type": "address"
        }
      ],
      "stateMutability": "view",
      "type": "function"
    },
    {
      "inputs": [
        {
          "internalType": "uint256",
          "name": "id",
          "type": "uint256"
        },
        {
          "internalType": "address",
          "name": "owner",
          "type": "address"
        }
      ],
      "name": "reclaim",
      "outputs": [],
      "stateMutability": "nonpayable",
      "type": "function"
    },
    {
      "inputs": [
        {
          "internalType": "uint256",
          "name": "id",
          "type": "uint256"
        },
        {
          "internalType": "address",
          "name": "owner",
          "type": "address"
        },
        {
          "internalType": "uint256",
          "name": "duration",
          "type": "uint256"
        }
      ],
      "name": "register",
      "outputs": [
        {
          "internalType": "uint256",
          "name": "",
          "type": "uint256"
        }
      ],
      "stateMutability": "nonpayable",
      "type": "function"
    },
    {
      "inputs": [
        {
          "internalType": "uint256",
          "name": "id",
          "type": "uint256"
        },
        {
          "internalType": "address",
          "name": "owner",
          "type": "address"
        },
        {
          "internalType": "uint256",
          "name": "duration",
          "type": "uint256"
        }
      ],
      "name": "registerOnly",
      "outputs": [
        {
          "internalType": "uint256",
          "name": "",
          "type": "uint256"
        }
      ],
      "stateMutability": "nonpayable",
      "type": "function"
    },
    {
      "inputs": [
        {
          "internalType": "address",
          "name": "controller",
          "type": "address"
        }
      ],
      "name": "removeController",
      "outputs": [],
      "stateMutability": "nonpayable",
      "type": "function"
    },
    {
      "inputs": [
        {
          "internalType": "uint256",
          "name": "id",
          "type": "uint256"
        },
        {
          "internalType": "uint256",
          "name": "duration",
          "type": "uint256"
        }
      ],
      "name": "renew",
      "outputs": [
        {
          "internalType": "uint256",
          "name": "",
          "type": "uint256"
        }
      ],
      "stateMutability": "nonpayable",
      "type": "function"
    },
    {
      "inputs": [],
      "name": "renounceOwnership",
      "outputs": [],
      "stateMutability": "nonpayable",
      "type": "function"
    },
    {
      "inputs": [
        {
          "internalType": "address",
          "name": "from",
          "type": "address"
        },
        {
          "internalType": "address",
          "name": "to",
          "type": "address"
        },
        {
          "internalType": "uint256",
          "name": "tokenId",
          "type": "uint256"
        }
      ],
      "name": "safeTransferFrom",
      "outputs": [],
      "stateMutability": "nonpayable",
      "type": "function"
    },
    {
      "inputs": [
        {
          "internalType": "address",
          "name": "from",
          "type": "address"
        },
        {
          "internalType": "address",
          "name": "to",
          "type": "address"
        },
        {
          "internalType": "uint256",
          "name": "tokenId",
          "type": "uint256"
        },
        {
          "internalType": "bytes",
          "name": "_data",
          "type": "bytes"
        }
      ],
      "name": "safeTransferFrom",
      "outputs": [],
      "stateMutability": "nonpayable",
      "type": "function"
    },
    {
      "inputs": [
        {
          "internalType": "address",
          "name": "to",
          "type": "address"
        },
        {
          "internalType": "bool",
          "name": "approved",
          "type": "bool"
        }
      ],
      "name": "setApprovalForAll",
      "outputs": [],
      "stateMutability": "nonpayable",
      "type": "function"
    },
    {
      "inputs": [
        {
          "internalType": "address",
          "name": "resolver",
          "type": "address"
        }
      ],
      "name": "setResolver",
      "outputs": [],
      "stateMutability": "nonpayable",
      "type": "function"
    },
    {
      "inputs": [
        {
          "internalType": "bytes4",
          "name": "interfaceID",
          "type": "bytes4"
        }
      ],
      "name": "supportsInterface",
      "outputs": [
        {
          "internalType": "bool",
          "name": "",
          "type": "bool"
        }
      ],
      "stateMutability": "view",
      "type": "function"
    },
    {
      "inputs": [
        {
          "internalType": "address",
          "name": "from",
          "type": "address"
        },
        {
          "internalType": "address",
          "name": "to",
          "type": "address"
        },
        {
          "internalType": "uint256",
          "name": "tokenId",
          "type": "uint256"
        }
      ],
      "name": "transferFrom",
      "outputs": [],
      "stateMutability": "nonpayable",
      "type": "function"
    },
    {
      "inputs": [
        {
          "internalType": "address",
          "name": "newOwner",
          "type": "address"
        }
      ],
      "name": "transferOwnership",
      "outputs": [],
      "stateMutability": "nonpayable",
      "type": "function"
    }
  ],
  "transactionHash": "0xe1ab2b4f06239fdb32f1d808caeada05f54d30181870e26b783f02f75998accf",
  "args": [
    "0xD7c8de815992B885c6d03a8df30bf06A09bAC94F",
    "0x51da8d4c89aa5dc26692b717721bad79e7daf431efba432139689a7ea4295d57"
  ],
  "solcInputHash": "cdfb794147f149bd4be1a5ab94086c87",
  "bytecode": "0x608060405234801561001057600080fd5b506040516116783803806116788339818101604052604081101561003357600080fd5b50805160209091015161004c6301ffc9a760e01b6100d1565b61005c6380ac58cd60e01b6100d1565b600580546001600160a01b0319163317908190556040516001600160a01b0391909116906000907f8be0079c531659141344cd1fd0a4f28419497f9722a3daafe3b4186f6b6457e0908290a3600680546001600160a01b0319166001600160a01b03939093169290921790915560075561010d565b6001600160e01b031980821614156100e857600080fd5b6001600160e01b0319166000908152602081905260409020805460ff19166001179055565b61155c8061011c6000396000f3fe608060405234801561001057600080fd5b50600436106101b95760003560e01c80638f32d59b116100f9578063d6e4fa8611610097578063e985e9c511610071578063e985e9c514610572578063f2fde38b146105a0578063f6a74ed7146105c6578063fca247ac146105ec576101b9565b8063d6e4fa8614610527578063da8c229e14610544578063ddf7fcb01461056a576101b9565b8063a7fc7a07116100d3578063a7fc7a0714610410578063b88d4fde14610436578063c1a287e2146104fc578063c475abff14610504576101b9565b80638f32d59b146103bd57806396e494e8146103c5578063a22cb465146103e2576101b9565b80633f15457f116101665780636352211e116101405780636352211e1461036a57806370a0823114610387578063715018a6146103ad5780638da5cb5b146103b5576101b9565b80633f15457f1461030657806342842e0e1461030e5780634e543b2614610344576101b9565b80630e297b45116101975780630e297b451461026057806323b872dd146102a457806328ed4f6c146102da576101b9565b806301ffc9a7146101be578063081812fc146101f9578063095ea7b314610232575b600080fd5b6101e5600480360360208110156101d457600080fd5b50356001600160e01b03191661061e565b604080519115158252519081900360200190f35b6102166004803603602081101561020f57600080fd5b50356106bb565b604080516001600160a01b039092168252519081900360200190f35b61025e6004803603604081101561024857600080fd5b506001600160a01b0381351690602001356106eb565b005b6102926004803603606081101561027657600080fd5b508035906001600160a01b036020820135169060400135610798565b60408051918252519081900360200190f35b61025e600480360360608110156102ba57600080fd5b506001600160a01b038135811691602081013590911690604001356107af565b61025e600480360360408110156102f057600080fd5b50803590602001356001600160a01b03166107d2565b610216610902565b61025e6004803603606081101561032457600080fd5b506001600160a01b03813581169160208101359091169060400135610911565b61025e6004803603602081101561035a57600080fd5b50356001600160a01b031661092c565b6102166004803603602081101561038057600080fd5b50356109c9565b6102926004803603602081101561039d57600080fd5b50356001600160a01b03166109ec565b61025e610a1d565b610216610a78565b6101e5610a87565b6101e5600480360360208110156103db57600080fd5b5035610a98565b61025e600480360360408110156103f857600080fd5b506001600160a01b0381351690602001351515610ab3565b61025e6004803603602081101561042657600080fd5b50356001600160a01b0316610b37565b61025e6004803603608081101561044c57600080fd5b6001600160a01b0382358116926020810135909116916040820135919081019060808101606082013564010000000081111561048757600080fd5b82018360208201111561049957600080fd5b803590602001918460018302840111640100000000831117156104bb57600080fd5b91908080601f016020809104026020016040519081016040528093929190818152602001838380828437600092019190915250929550610b94945050505050565b610292610bb4565b6102926004803603604081101561051a57600080fd5b5080359060200135610bbb565b6102926004803603602081101561053d57600080fd5b5035610d10565b6101e56004803603602081101561055a57600080fd5b50356001600160a01b0316610d22565b610292610d37565b6101e56004803603604081101561058857600080fd5b506001600160a01b0381358116916020013516610d3d565b61025e600480360360208110156105b657600080fd5b50356001600160a01b0316610d6b565b61025e600480360360208110156105dc57600080fd5b50356001600160a01b0316610d88565b6102926004803603606081101561060257600080fd5b508035906001600160a01b036020820135169060400135610de2565b60006001600160e01b031982167f01ffc9a700000000000000000000000000000000000000000000000000000000148061068157506001600160e01b031982167f80ac58cd00000000000000000000000000000000000000000000000000000000145b806106b557506001600160e01b031982167f28ed4f6c00000000000000000000000000000000000000000000000000000000145b92915050565b60006106c682610df1565b6106cf57600080fd5b506000908152600260205260409020546001600160a01b031690565b60006106f6826109c9565b9050806001600160a01b0316836001600160a01b0316141561071757600080fd5b336001600160a01b038216148061073357506107338133610d3d565b61073c57600080fd5b60008281526002602052604080822080546001600160a01b0319166001600160a01b0387811691821790925591518593918516917f8c5be1e5ebec7d5bd14f71427d1e84f3dd0314c0f7b2291e5b200ac8c7c3b92591a4505050565b60006107a78484846000610e0e565b949350505050565b6107b93382610ffa565b6107c257600080fd5b6107cd838383611051565b505050565b600654600754604080516302571be360e01b815260048101929092525130926001600160a01b0316916302571be3916024808301926020929190829003018186803b15801561082057600080fd5b505afa158015610834573d6000803e3d6000fd5b505050506040513d602081101561084a57600080fd5b50516001600160a01b03161461085f57600080fd5b6108693383610ffa565b61087257600080fd5b600654600754604080516306ab592360e01b81526004810192909252602482018590526001600160a01b03848116604484015290519216916306ab5923916064808201926020929091908290030181600087803b1580156108d257600080fd5b505af11580156108e6573d6000803e3d6000fd5b505050506040513d60208110156108fc57600080fd5b50505050565b6006546001600160a01b031681565b6107cd83838360405180602001604052806000815250610b94565b610934610a87565b61093d57600080fd5b600654600754604080517f1896f70a00000000000000000000000000000000000000000000000000000000815260048101929092526001600160a01b0384811660248401529051921691631896f70a9160448082019260009290919082900301818387803b1580156109ae57600080fd5b505af11580156109c2573d6000803e3d6000fd5b5050505050565b60008181526009602052604081205442106109e357600080fd5b6106b582611152565b60006001600160a01b038216610a0157600080fd5b506001600160a01b031660009081526003602052604090205490565b610a25610a87565b610a2e57600080fd5b6005546040516000916001600160a01b0316907f8be0079c531659141344cd1fd0a4f28419497f9722a3daafe3b4186f6b6457e0908390a3600580546001600160a01b0319169055565b6005546001600160a01b031690565b6005546001600160a01b0316331490565b600090815260096020526040902054426276a7009091011090565b6001600160a01b038216331415610ac957600080fd5b3360008181526004602090815260408083206001600160a01b03871680855290835292819020805460ff1916861515908117909155815190815290519293927f17307eab39ab6107e8899845ad3d59bd9653f200f220920489ca2b5937696c31929181900390910190a35050565b610b3f610a87565b610b4857600080fd5b6001600160a01b038116600081815260086020526040808220805460ff19166001179055517f0a8bb31534c0ed46f380cb867bd5c803a189ced9a764e30b3a4991a9901d74749190a250565b610b9f8484846107af565b610bab84848484611174565b6108fc57600080fd5b6276a70081565b600654600754604080516302571be360e01b815260048101929092525160009230926001600160a01b03909116916302571be391602480820192602092909190829003018186803b158015610c0f57600080fd5b505afa158015610c23573d6000803e3d6000fd5b505050506040513d6020811015610c3957600080fd5b50516001600160a01b031614610c4e57600080fd5b3360009081526008602052604090205460ff16610c6a57600080fd5b600083815260096020526040902054426276a7009091011015610c8c57600080fd5b6000838152600960205260409020546276a7008381019184010111610cb057600080fd5b60008381526009602090815260409182902080548501908190558251908152915185927f9b87a00e30f1ac65d898f070f8a3488fe60517182d0a2098e1b4b93a54aa9bd692908290030190a2505060009081526009602052604090205490565b60009081526009602052604090205490565b60086020526000908152604090205460ff1681565b60075481565b6001600160a01b03918216600090815260046020908152604080832093909416825291909152205460ff1690565b610d73610a87565b610d7c57600080fd5b610d85816112cb565b50565b610d90610a87565b610d9957600080fd5b6001600160a01b038116600081815260086020526040808220805460ff19169055517f33d83959be2573f5453b12eb9d43b3499bc57d96bd2f067ba44803c859e811139190a250565b60006107a78484846001610e0e565b6000908152600160205260409020546001600160a01b0316151590565b600654600754604080516302571be360e01b815260048101929092525160009230926001600160a01b03909116916302571be391602480820192602092909190829003018186803b158015610e6257600080fd5b505afa158015610e76573d6000803e3d6000fd5b505050506040513d6020811015610e8c57600080fd5b50516001600160a01b031614610ea157600080fd5b3360009081526008602052604090205460ff16610ebd57600080fd5b610ec685610a98565b610ecf57600080fd5b6276a70042016276a7008442010111610ee757600080fd5b60008581526009602052604090204284019055610f0385610df1565b15610f1157610f118561133a565b610f1b848661134c565b8115610fae57600654600754604080516306ab592360e01b81526004810192909252602482018890526001600160a01b03878116604484015290519216916306ab5923916064808201926020929091908290030181600087803b158015610f8157600080fd5b505af1158015610f95573d6000803e3d6000fd5b505050506040513d6020811015610fab57600080fd5b50505b60408051428501815290516001600160a01b0386169187917fb3d987963d01b2f68493b4bdb130988f157ea43070d4ad840fee0466ed9370d99181900360200190a35050420192915050565b600080611006836109c9565b9050806001600160a01b0316846001600160a01b031614806110415750836001600160a01b0316611036846106bb565b6001600160a01b0316145b806107a757506107a78185610d3d565b826001600160a01b0316611064826109c9565b6001600160a01b03161461107757600080fd5b6001600160a01b03821661108a57600080fd5b611093816113fe565b6001600160a01b0383166000908152600360205260409020546110b7906001611439565b6001600160a01b0380851660009081526003602052604080822093909355908416815220546110e790600161144e565b6001600160a01b038084166000818152600360209081526040808320959095558582526001905283812080546001600160a01b031916831790559251849391928716917fddf252ad1be2c89b69c2b068fc378daa952ba7f163c4a11628f55a4df523b3ef91a4505050565b6000818152600160205260408120546001600160a01b0316806106b557600080fd5b6000611188846001600160a01b0316611467565b611194575060016107a7565b6000846001600160a01b031663150b7a02338887876040518563ffffffff1660e01b815260040180856001600160a01b03168152602001846001600160a01b0316815260200183815260200180602001828103825283818151815260200191508051906020019080838360005b83811015611219578181015183820152602001611201565b50505050905090810190601f1680156112465780820380516001836020036101000a031916815260200191505b5095505050505050602060405180830381600087803b15801561126857600080fd5b505af115801561127c573d6000803e3d6000fd5b505050506040513d602081101561129257600080fd5b50516001600160e01b0319167f150b7a020000000000000000000000000000000000000000000000000000000014915050949350505050565b6001600160a01b0381166112de57600080fd5b6005546040516001600160a01b038084169216907f8be0079c531659141344cd1fd0a4f28419497f9722a3daafe3b4186f6b6457e090600090a3600580546001600160a01b0319166001600160a01b0392909216919091179055565b610d85611346826109c9565b8261146d565b6001600160a01b03821661135f57600080fd5b61136881610df1565b1561137257600080fd5b600081815260016020818152604080842080546001600160a01b0319166001600160a01b03881690811790915584526003909152909120546113b39161144e565b6001600160a01b0383166000818152600360205260408082209390935591518392907fddf252ad1be2c89b69c2b068fc378daa952ba7f163c4a11628f55a4df523b3ef908290a45050565b6000818152600260205260409020546001600160a01b031615610d8557600090815260026020526040902080546001600160a01b0319169055565b60008282111561144857600080fd5b50900390565b60008282018381101561146057600080fd5b9392505050565b3b151590565b816001600160a01b0316611480826109c9565b6001600160a01b03161461149357600080fd5b61149c816113fe565b6001600160a01b0382166000908152600360205260409020546114c0906001611439565b6001600160a01b0383166000818152600360209081526040808320949094558482526001905282812080546001600160a01b03191690559151839291907fddf252ad1be2c89b69c2b068fc378daa952ba7f163c4a11628f55a4df523b3ef908390a4505056fea264697066735822122055a7fad32cd153b3e9486cd78bab8d505ad3ad0b4511c6406cf3eff55f528dbd64736f6c63430007040033",
  "devdoc": {
    "kind": "dev",
    "methods": {
      "approve(address,uint256)": {
        "details": "Approves another address to transfer the given token ID The zero address indicates there is no approved address. There can only be one approved address per token at a given time. Can only be called by the token owner or an approved operator.",
        "params": {
          "to": "address to be approved for the given token ID",
          "tokenId": "uint256 ID of the token to be approved"
        }
      },
      "balanceOf(address)": {
        "details": "Gets the balance of the specified address",
        "params": {
          "owner": "address to query the balance of"
        },
        "returns": {
          "_0": "uint256 representing the amount owned by the passed address"
        }
      },
      "getApproved(uint256)": {
        "details": "Gets the approved address for a token ID, or zero if no address set Reverts if the token ID does not exist.",
        "params": {
          "tokenId": "uint256 ID of the token to query the approval of"
        },
        "returns": {
          "_0": "address currently approved for the given token ID"
        }
      },
      "isApprovedForAll(address,address)": {
        "details": "Tells whether an operator is approved by a given owner",
        "params": {
          "operator": "operator address which you want to query the approval of",
          "owner": "owner address which you want to query the approval of"
        },
        "returns": {
          "_0": "bool whether the given operator is approved by the given owner"
        }
      },
      "isOwner()": {
        "returns": {
          "_0": "true if `msg.sender` is the owner of the contract."
        }
      },
      "owner()": {
        "returns": {
          "_0": "the address of the owner."
        }
      },
      "ownerOf(uint256)": {
        "details": "Gets the owner of the specified token ID. Names become ublock.timestampned      when their registration expires.",
        "params": {
          "tokenId": "uint256 ID of the token to query the owner of"
        },
        "returns": {
          "_0": "address currently marked as the owner of the given token ID"
        }
      },
      "reclaim(uint256,address)": {
        "details": "Reclaim ownership of a name in ENS, if you own it in the registrar."
      },
      "register(uint256,address,uint256)": {
        "details": "Register a name.",
        "params": {
          "duration": "Duration in seconds for the registration.",
          "id": "The token ID (keccak256 of the label).",
          "owner": "The address that should own the registration."
        }
      },
      "registerOnly(uint256,address,uint256)": {
        "details": "Register a name, without modifying the registry.",
        "params": {
          "duration": "Duration in seconds for the registration.",
          "id": "The token ID (keccak256 of the label).",
          "owner": "The address that should own the registration."
        }
      },
      "renounceOwnership()": {
        "details": "Allows the current owner to relinquish control of the contract."
      },
      "safeTransferFrom(address,address,uint256)": {
        "details": "Safely transfers the ownership of a given token ID to another address If the target address is a contract, it must implement `onERC721Received`, which is called upon a safe transfer, and return the magic value `bytes4(keccak256(\"onERC721Received(address,address,uint256,bytes)\"))`; otherwise, the transfer is reverted. Requires the msg sender to be the owner, approved, or operator",
        "params": {
          "from": "current owner of the token",
          "to": "address to receive the ownership of the given token ID",
          "tokenId": "uint256 ID of the token to be transferred"
        }
      },
      "safeTransferFrom(address,address,uint256,bytes)": {
        "details": "Safely transfers the ownership of a given token ID to another address If the target address is a contract, it must implement `onERC721Received`, which is called upon a safe transfer, and return the magic value `bytes4(keccak256(\"onERC721Received(address,address,uint256,bytes)\"))`; otherwise, the transfer is reverted. Requires the msg sender to be the owner, approved, or operator",
        "params": {
          "_data": "bytes data to send along with a safe transfer check",
          "from": "current owner of the token",
          "to": "address to receive the ownership of the given token ID",
          "tokenId": "uint256 ID of the token to be transferred"
        }
      },
      "setApprovalForAll(address,bool)": {
        "details": "Sets or unsets the approval of a given operator An operator is allowed to transfer all tokens of the sender on their behalf",
        "params": {
          "approved": "representing the status of the approval to be set",
          "to": "operator address to set the approval"
        }
      },
      "transferFrom(address,address,uint256)": {
        "details": "Transfers the ownership of a given token ID to another address Usage of this method is discouraged, use `safeTransferFrom` whenever possible Requires the msg sender to be the owner, approved, or operator",
        "params": {
          "from": "current owner of the token",
          "to": "address to receive the ownership of the given token ID",
          "tokenId": "uint256 ID of the token to be transferred"
        }
      },
      "transferOwnership(address)": {
        "details": "Allows the current owner to transfer control of the contract to a newOwner.",
        "params": {
          "newOwner": "The address to transfer ownership to."
        }
      }
    },
    "version": 1
  },
  "userdoc": {
    "kind": "user",
    "methods": {
      "renounceOwnership()": {
        "notice": "Renouncing to ownership will leave the contract without an owner. It will not be possible to call the functions with the `onlyOwner` modifier anymore."
      }
    },
    "version": 1
  },
  "storageLayout": {
    "storage": [
      {
        "astId": 3116,
        "contract": "contracts/BaseRegistrarImplementation.sol:BaseRegistrarImplementation",
        "label": "_supportedInterfaces",
        "offset": 0,
        "slot": "0",
        "type": "t_mapping(t_bytes4,t_bool)"
      },
      {
        "astId": 3184,
        "contract": "contracts/BaseRegistrarImplementation.sol:BaseRegistrarImplementation",
        "label": "_tokenOwner",
        "offset": 0,
        "slot": "1",
        "type": "t_mapping(t_uint256,t_address)"
      },
      {
        "astId": 3188,
        "contract": "contracts/BaseRegistrarImplementation.sol:BaseRegistrarImplementation",
        "label": "_tokenApprovals",
        "offset": 0,
        "slot": "2",
        "type": "t_mapping(t_uint256,t_address)"
      },
      {
        "astId": 3192,
        "contract": "contracts/BaseRegistrarImplementation.sol:BaseRegistrarImplementation",
        "label": "_ownedTokensCount",
        "offset": 0,
        "slot": "3",
        "type": "t_mapping(t_address,t_uint256)"
      },
      {
        "astId": 3198,
        "contract": "contracts/BaseRegistrarImplementation.sol:BaseRegistrarImplementation",
        "label": "_operatorApprovals",
        "offset": 0,
        "slot": "4",
        "type": "t_mapping(t_address,t_mapping(t_address,t_bool))"
      },
      {
        "astId": 2418,
        "contract": "contracts/BaseRegistrarImplementation.sol:BaseRegistrarImplementation",
        "label": "_owner",
        "offset": 0,
        "slot": "5",
        "type": "t_address"
      },
      {
        "astId": 43,
        "contract": "contracts/BaseRegistrarImplementation.sol:BaseRegistrarImplementation",
        "label": "ens",
        "offset": 0,
        "slot": "6",
        "type": "t_contract(ENS)703"
      },
      {
        "astId": 45,
        "contract": "contracts/BaseRegistrarImplementation.sol:BaseRegistrarImplementation",
        "label": "baseNode",
        "offset": 0,
        "slot": "7",
        "type": "t_bytes32"
      },
      {
        "astId": 49,
        "contract": "contracts/BaseRegistrarImplementation.sol:BaseRegistrarImplementation",
        "label": "controllers",
        "offset": 0,
        "slot": "8",
        "type": "t_mapping(t_address,t_bool)"
      },
      {
        "astId": 118,
        "contract": "contracts/BaseRegistrarImplementation.sol:BaseRegistrarImplementation",
        "label": "expiries",
        "offset": 0,
        "slot": "9",
        "type": "t_mapping(t_uint256,t_uint256)"
      }
    ],
    "types": {
      "t_address": {
        "encoding": "inplace",
        "label": "address",
        "numberOfBytes": "20"
      },
      "t_bool": {
        "encoding": "inplace",
        "label": "bool",
        "numberOfBytes": "1"
      },
      "t_bytes32": {
        "encoding": "inplace",
        "label": "bytes32",
        "numberOfBytes": "32"
      },
      "t_bytes4": {
        "encoding": "inplace",
        "label": "bytes4",
        "numberOfBytes": "4"
      },
      "t_contract(ENS)703": {
        "encoding": "inplace",
        "label": "contract ENS",
        "numberOfBytes": "20"
      },
      "t_mapping(t_address,t_bool)": {
        "encoding": "mapping",
        "key": "t_address",
        "label": "mapping(address => bool)",
        "numberOfBytes": "32",
        "value": "t_bool"
      },
      "t_mapping(t_address,t_mapping(t_address,t_bool))": {
        "encoding": "mapping",
        "key": "t_address",
        "label": "mapping(address => mapping(address => bool))",
        "numberOfBytes": "32",
        "value": "t_mapping(t_address,t_bool)"
      },
      "t_mapping(t_address,t_uint256)": {
        "encoding": "mapping",
        "key": "t_address",
        "label": "mapping(address => uint256)",
        "numberOfBytes": "32",
        "value": "t_uint256"
      },
      "t_mapping(t_bytes4,t_bool)": {
        "encoding": "mapping",
        "key": "t_bytes4",
        "label": "mapping(bytes4 => bool)",
        "numberOfBytes": "32",
        "value": "t_bool"
      },
      "t_mapping(t_uint256,t_address)": {
        "encoding": "mapping",
        "key": "t_uint256",
        "label": "mapping(uint256 => address)",
        "numberOfBytes": "32",
        "value": "t_address"
      },
      "t_mapping(t_uint256,t_uint256)": {
        "encoding": "mapping",
        "key": "t_uint256",
        "label": "mapping(uint256 => uint256)",
        "numberOfBytes": "32",
        "value": "t_uint256"
      },
      "t_uint256": {
        "encoding": "inplace",
        "label": "uint256",
        "numberOfBytes": "32"
      }
    }
  }
}