{
  "address": "0x310470544a649a003589F333efa3DA71928f40C6",
  "abi": [
    {
      "inputs": [
        {
          "internalType": "contract BaseRegistrar",
          "name": "_base",
          "type": "address"
        },
        {
          "internalType": "contract PriceOracle",
          "name": "_prices",
          "type": "address"
        },
        {
          "internalType": "uint256",
          "name": "_minCommitmentAge",
          "type": "uint256"
        },
        {
          "internalType": "uint256",
          "name": "_maxCommitmentAge",
          "type": "uint256"
        }
      ],
      "stateMutability": "nonpayable",
      "type": "constructor"
    },
    {
      "anonymous": false,
      "inputs": [
        {
          "indexed": false,
          "internalType": "string",
          "name": "name",
          "type": "string"
        },
        {
          "indexed": true,
          "internalType": "bytes32",
          "name": "label",
          "type": "bytes32"
        },
        {
          "indexed": true,
          "internalType": "address",
          "name": "owner",
          "type": "address"
        },
        {
          "indexed": false,
          "internalType": "uint256",
          "name": "cost",
          "type": "uint256"
        },
        {
          "indexed": false,
          "internalType": "uint256",
          "name": "expires",
          "type": "uint256"
        }
      ],
      "name": "NameRegistered",
      "type": "event"
    },
    {
      "anonymous": false,
      "inputs": [
        {
          "indexed": false,
          "internalType": "string",
          "name": "name",
          "type": "string"
        },
        {
          "indexed": true,
          "internalType": "bytes32",
          "name": "label",
          "type": "bytes32"
        },
        {
          "indexed": false,
          "internalType": "uint256",
          "name": "cost",
          "type": "uint256"
        },
        {
          "indexed": false,
          "internalType": "uint256",
          "name": "expires",
          "type": "uint256"
        }
      ],
      "name": "NameRenewed",
      "type": "event"
    },
    {
      "anonymous": false,
      "inputs": [
        {
          "indexed": true,
          "internalType": "address",
          "name": "oracle",
          "type": "address"
        }
      ],
      "name": "NewPriceOracle",
      "type": "event"
    },
    {
      "anonymous": false,
      "inputs": [
        {
          "indexed": true,
          "internalType": "address",
          "name": "previousOwner",
          "type": "address"
        },
        {
          "indexed": true,
          "internalType": "address",
          "name": "newOwner",
          "type": "address"
        }
      ],
      "name": "OwnershipTransferred",
      "type": "event"
    },
    {
      "inputs": [],
      "name": "MIN_REGISTRATION_DURATION",
      "outputs": [
        {
          "internalType": "uint256",
          "name": "",
          "type": "uint256"
        }
      ],
      "stateMutability": "view",
      "type": "function"
    },
    {
      "inputs": [
        {
          "internalType": "string",
          "name": "name",
          "type": "string"
        }
      ],
      "name": "available",
      "outputs": [
        {
          "internalType": "bool",
          "name": "",
          "type": "bool"
        }
      ],
      "stateMutability": "view",
      "type": "function"
    },
    {
      "inputs": [
        {
          "internalType": "bytes32",
          "name": "commitment",
          "type": "bytes32"
        }
      ],
      "name": "commit",
      "outputs": [],
      "stateMutability": "nonpayable",
      "type": "function"
    },
    {
      "inputs": [
        {
          "internalType": "bytes32",
          "name": "",
          "type": "bytes32"
        }
      ],
      "name": "commitments",
      "outputs": [
        {
          "internalType": "uint256",
          "name": "",
          "type": "uint256"
        }
      ],
      "stateMutability": "view",
      "type": "function"
    },
    {
      "inputs": [],
      "name": "isOwner",
      "outputs": [
        {
          "internalType": "bool",
          "name": "",
          "type": "bool"
        }
      ],
      "stateMutability": "view",
      "type": "function"
    },
    {
      "inputs": [
        {
          "internalType": "string",
          "name": "name",
          "type": "string"
        },
        {
          "internalType": "address",
          "name": "owner",
          "type": "address"
        },
        {
          "internalType": "bytes32",
          "name": "secret",
          "type": "bytes32"
        }
      ],
      "name": "makeCommitment",
      "outputs": [
        {
          "internalType": "bytes32",
          "name": "",
          "type": "bytes32"
        }
      ],
      "stateMutability": "pure",
      "type": "function"
    },
    {
      "inputs": [
        {
          "internalType": "string",
          "name": "name",
          "type": "string"
        },
        {
          "internalType": "address",
          "name": "owner",
          "type": "address"
        },
        {
          "internalType": "bytes32",
          "name": "secret",
          "type": "bytes32"
        },
        {
          "internalType": "address",
          "name": "resolver",
          "type": "address"
        },
        {
          "internalType": "address",
          "name": "addr",
          "type": "address"
        }
      ],
      "name": "makeCommitmentWithConfig",
      "outputs": [
        {
          "internalType": "bytes32",
          "name": "",
          "type": "bytes32"
        }
      ],
      "stateMutability": "pure",
      "type": "function"
    },
    {
      "inputs": [],
      "name": "maxCommitmentAge",
      "outputs": [
        {
          "internalType": "uint256",
          "name": "",
          "type": "uint256"
        }
      ],
      "stateMutability": "view",
      "type": "function"
    },
    {
      "inputs": [],
      "name": "minCommitmentAge",
      "outputs": [
        {
          "internalType": "uint256",
          "name": "",
          "type": "uint256"
        }
      ],
      "stateMutability": "view",
      "type": "function"
    },
    {
      "inputs": [],
      "name": "owner",
      "outputs": [
        {
          "internalType": "address",
          "name": "",
          "type": "address"
        }
      ],
      "stateMutability": "view",
      "type": "function"
    },
    {
      "inputs": [
        {
          "internalType": "string",
          "name": "name",
          "type": "string"
        },
        {
          "internalType": "address",
          "name": "owner",
          "type": "address"
        },
        {
          "internalType": "uint256",
          "name": "duration",
          "type": "uint256"
        },
        {
          "internalType": "bytes32",
          "name": "secret",
          "type": "bytes32"
        }
      ],
      "name": "register",
      "outputs": [],
      "stateMutability": "payable",
      "type": "function"
    },
    {
      "inputs": [
        {
          "internalType": "string",
          "name": "name",
          "type": "string"
        },
        {
          "internalType": "address",
          "name": "owner",
          "type": "address"
        },
        {
          "internalType": "uint256",
          "name": "duration",
          "type": "uint256"
        },
        {
          "internalType": "bytes32",
          "name": "secret",
          "type": "bytes32"
        },
        {
          "internalType": "address",
          "name": "resolver",
          "type": "address"
        },
        {
          "internalType": "address",
          "name": "addr",
          "type": "address"
        }
      ],
      "name": "registerWithConfig",
      "outputs": [],
      "stateMutability": "payable",
      "type": "function"
    },
    {
      "inputs": [
        {
          "internalType": "string",
          "name": "name",
          "type": "string"
        },
        {
          "internalType": "uint256",
          "name": "duration",
          "type": "uint256"
        }
      ],
      "name": "renew",
      "outputs": [],
      "stateMutability": "payable",
      "type": "function"
    },
    {
      "inputs": [],
      "name": "renounceOwnership",
      "outputs": [],
      "stateMutability": "nonpayable",
      "type": "function"
    },
    {
      "inputs": [
        {
          "internalType": "string",
          "name": "name",
          "type": "string"
        },
        {
          "internalType": "uint256",
          "name": "duration",
          "type": "uint256"
        }
      ],
      "name": "rentPrice",
      "outputs": [
        {
          "internalType": "uint256",
          "name": "",
          "type": "uint256"
        }
      ],
      "stateMutability": "view",
      "type": "function"
    },
    {
      "inputs": [
        {
          "internalType": "uint256",
          "name": "_minCommitmentAge",
          "type": "uint256"
        },
        {
          "internalType": "uint256",
          "name": "_maxCommitmentAge",
          "type": "uint256"
        }
      ],
      "name": "setCommitmentAges",
      "outputs": [],
      "stateMutability": "nonpayable",
      "type": "function"
    },
    {
      "inputs": [
        {
          "internalType": "contract PriceOracle",
          "name": "_prices",
          "type": "address"
        }
      ],
      "name": "setPriceOracle",
      "outputs": [],
      "stateMutability": "nonpayable",
      "type": "function"
    },
    {
      "inputs": [
        {
          "internalType": "bytes4",
          "name": "interfaceID",
          "type": "bytes4"
        }
      ],
      "name": "supportsInterface",
      "outputs": [
        {
          "internalType": "bool",
          "name": "",
          "type": "bool"
        }
      ],
      "stateMutability": "pure",
      "type": "function"
    },
    {
      "inputs": [
        {
          "internalType": "address",
          "name": "newOwner",
          "type": "address"
        }
      ],
      "name": "transferOwnership",
      "outputs": [],
      "stateMutability": "nonpayable",
      "type": "function"
    },
    {
      "inputs": [
        {
          "internalType": "string",
          "name": "name",
          "type": "string"
        }
      ],
      "name": "valid",
      "outputs": [
        {
          "internalType": "bool",
          "name": "",
          "type": "bool"
        }
      ],
      "stateMutability": "pure",
      "type": "function"
    },
    {
      "inputs": [],
      "name": "withdraw",
      "outputs": [],
      "stateMutability": "nonpayable",
      "type": "function"
    }
  ],
  "transactionHash": "0xcf016e96daf4a2a03ee67eaabfc2daef607824a1cadf37320fa5967aa82f3f77",
  "args": [
    "0x7A9e8eAdCD877101cfCC43e1917EF3a1caa05Ffd",
    "0x73964F6F211D5a8428322EDFbDfEc72FF76D9fCd",
    0,
    1
  ],
  "solcInputHash": "cdfb794147f149bd4be1a5ab94086c87",
  "bytecode": "0x608060405234801561001057600080fd5b506040516118633803806118638339818101604052608081101561003357600080fd5b5080516020820151604080840151606090940151600080546001600160a01b031916331780825592519495939491926001600160a01b0316917f8be0079c531659141344cd1fd0a4f28419497f9722a3daafe3b4186f6b6457e0908290a381811161009d57600080fd5b600180546001600160a01b039586166001600160a01b031991821617909155600280549490951693169290921790925560039190915560045561177e806100e56000396000f3fe60806040526004361061016a5760003560e01c80638d839ffe116100cb578063aeb8ce9b1161007f578063f2fde38b11610059578063f2fde38b14610713578063f49826be14610746578063f7a16963146108075761016a565b8063aeb8ce9b14610621578063ce1e09c0146106d4578063f14fcbc8146106e95761016a565b80638f32d59b116100b05780638f32d59b146104e95780639791c097146104fe578063acf1a841146105b15761016a565b80638d839ffe146104a35780638da5cb5b146104b85761016a565b80637e3244791161012257806383e7f6ff1161010757806383e7f6ff1461035457806385f6d155146104095780638a95b09f1461048e5761016a565b80637e324479146102fa578063839df9451461032a5761016a565b80633d86c52f116101535780633d86c52f146101ce578063530e784f146102b2578063715018a6146102e55761016a565b806301ffc9a71461016f5780633ccfd60b146101b7575b600080fd5b34801561017b57600080fd5b506101a36004803603602081101561019257600080fd5b50356001600160e01b0319166108d1565b604080519115158252519081900360200190f35b3480156101c357600080fd5b506101cc61096e565b005b3480156101da57600080fd5b506102a0600480360360a08110156101f157600080fd5b81019060208101813564010000000081111561020c57600080fd5b82018360208201111561021e57600080fd5b8035906020019184600183028401116401000000008311171561024057600080fd5b91908080601f016020809104026020016040519081016040528093929190818152602001838380828437600092019190915250929550506001600160a01b03833581169450602084013593604081013582169350606001351690506109ae565b60408051918252519081900360200190f35b3480156102be57600080fd5b506101cc600480360360208110156102d557600080fd5b50356001600160a01b0316610a9d565b3480156102f157600080fd5b506101cc610b0b565b34801561030657600080fd5b506101cc6004803603604081101561031d57600080fd5b5080359060200135610b73565b34801561033657600080fd5b506102a06004803603602081101561034d57600080fd5b5035610b8f565b34801561036057600080fd5b506102a06004803603604081101561037757600080fd5b81019060208101813564010000000081111561039257600080fd5b8201836020820111156103a457600080fd5b803590602001918460018302840111640100000000831117156103c657600080fd5b91908080601f0160208091040260200160405190810160405280939291908181526020018383808284376000920191909152509295505091359250610ba1915050565b6101cc6004803603608081101561041f57600080fd5b81019060208101813564010000000081111561043a57600080fd5b82018360208201111561044c57600080fd5b8035906020019184600183028401116401000000008311171561046e57600080fd5b91935091506001600160a01b038135169060208101359060400135610ba9565b34801561049a57600080fd5b506102a0610bf4565b3480156104af57600080fd5b506102a0610bfb565b3480156104c457600080fd5b506104cd610c01565b604080516001600160a01b039092168252519081900360200190f35b3480156104f557600080fd5b506101a3610c10565b34801561050a57600080fd5b506101a36004803603602081101561052157600080fd5b81019060208101813564010000000081111561053c57600080fd5b82018360208201111561054e57600080fd5b8035906020019184600183028401116401000000008311171561057057600080fd5b91908080601f016020809104026020016040519081016040528093929190818152602001838380828437600092019190915250929550610c21945050505050565b6101cc600480360360408110156105c757600080fd5b8101906020810181356401000000008111156105e257600080fd5b8201836020820111156105f457600080fd5b8035906020019184600183028401116401000000008311171561061657600080fd5b919350915035610c36565b34801561062d57600080fd5b506101a36004803603602081101561064457600080fd5b81019060208101813564010000000081111561065f57600080fd5b82018360208201111561067157600080fd5b8035906020019184600183028401116401000000008311171561069357600080fd5b91908080601f016020809104026020016040519081016040528093929190818152602001838380828437600092019190915250929550610df3945050505050565b3480156106e057600080fd5b506102a0610ea6565b3480156106f557600080fd5b506101cc6004803603602081101561070c57600080fd5b5035610eac565b34801561071f57600080fd5b506101cc6004803603602081101561073657600080fd5b50356001600160a01b0316610ede565b34801561075257600080fd5b506102a06004803603606081101561076957600080fd5b81019060208101813564010000000081111561078457600080fd5b82018360208201111561079657600080fd5b803590602001918460018302840111640100000000831117156107b857600080fd5b91908080601f016020809104026020016040519081016040528093929190818152602001838380828437600092019190915250929550506001600160a01b038335169350505060200135610ef8565b6101cc600480360360c081101561081d57600080fd5b81019060208101813564010000000081111561083857600080fd5b82018360208201111561084a57600080fd5b8035906020019184600183028401116401000000008311171561086c57600080fd5b91908080601f016020809104026020016040519081016040528093929190818152602001838380828437600092019190915250929550506001600160a01b03833581169450602084013593604081013593506060810135821692506080013516610f10565b60006001600160e01b031982167f01ffc9a700000000000000000000000000000000000000000000000000000000148061093457506001600160e01b031982167f018fac0600000000000000000000000000000000000000000000000000000000145b8061096857506001600160e01b031982167fca27ac4c00000000000000000000000000000000000000000000000000000000145b92915050565b610976610c10565b61097f57600080fd5b60405133904780156108fc02916000818181858888f193505050501580156109ab573d6000803e3d6000fd5b50565b845160208601206000906001600160a01b0384161580156109d657506001600160a01b038316155b15610a2657604080516020808201939093526bffffffffffffffffffffffff19606089901b1681830152605480820188905282518083039091018152607490910190915280519101209050610a94565b6001600160a01b038416610a3957600080fd5b604080516020808201939093526bffffffffffffffffffffffff19606089811b82168385015287811b8216605484015286901b166068820152607c80820188905282518083039091018152609c909101909152805191012090505b95945050505050565b610aa5610c10565b610aae57600080fd5b6002805473ffffffffffffffffffffffffffffffffffffffff19166001600160a01b0383811691909117918290556040519116907ff261845a790fe29bbd6631e2ca4a5bdc83e6eed7c3271d9590d97287e00e912390600090a250565b610b13610c10565b610b1c57600080fd5b600080546040516001600160a01b03909116907f8be0079c531659141344cd1fd0a4f28419497f9722a3daafe3b4186f6b6457e0908390a36000805473ffffffffffffffffffffffffffffffffffffffff19169055565b610b7b610c10565b610b8457600080fd5b600391909155600455565b60056020526000908152604090205481565b600092915050565b610bed85858080601f016020809104026020016040519081016040528093929190818152602001838380828437600092018290525088935087925086915080610f10565b5050505050565b6224ea0081565b60035481565b6000546001600160a01b031690565b6000546001600160a01b0316331490565b60006003610c2e836114cc565b101592915050565b6000610c7984848080601f016020809104026020016040519081016040528093929190818152602001838380828437600092019190915250869250610ba1915050565b905080341015610c8857600080fd5b6000848460405180838380828437604080519390910183900383206001547fc475abff00000000000000000000000000000000000000000000000000000000855260048501829052602485018b90529151909750600096506001600160a01b03909116945063c475abff93506044808401936020935082900301818787803b158015610d1357600080fd5b505af1158015610d27573d6000803e3d6000fd5b505050506040513d6020811015610d3d57600080fd5b5051905034831015610d7a5760405133903485900380156108fc02916000818181858888f19350505050158015610d78573d6000803e3d6000fd5b505b817f3da24c024582931cfaf8267d8ed24d13a82a8068d5bd337d30ec45cea4e506ae8787868560405180806020018481526020018381526020018281038252868682818152602001925080828437600083820152604051601f909101601f191690920182900397509095505050505050a2505050505050565b80516020820120600090610e0683610c21565b8015610e9f5750600154604080517f96e494e80000000000000000000000000000000000000000000000000000000081526004810184905290516001600160a01b03909216916396e494e891602480820192602092909190829003018186803b158015610e7257600080fd5b505afa158015610e86573d6000803e3d6000fd5b505050506040513d6020811015610e9c57600080fd5b50515b9392505050565b60045481565b60045460008281526005602052604090205442910110610ecb57600080fd5b6000908152600560205260409020429055565b610ee6610c10565b610eef57600080fd5b6109ab81611640565b6000610f088484846000806109ae565b949350505050565b6000610f1f87878686866109ae565b90506000610f2e8887846116bb565b885160208a01209091508060006001600160a01b038716156113325760015460408051633f2891eb60e21b815260048101859052306024820152604481018c905290516001600160a01b039092169163fca247ac916064808201926020929091908290030181600087803b158015610fa557600080fd5b505af1158015610fb9573d6000803e3d6000fd5b505050506040513d6020811015610fcf57600080fd5b5051600154604080517fddf7fcb000000000000000000000000000000000000000000000000000000000815290519293506000926001600160a01b039092169163ddf7fcb091600480820192602092909190829003018186803b15801561103557600080fd5b505afa158015611049573d6000803e3d6000fd5b505050506040513d602081101561105f57600080fd5b505160408051602081810193909352808201879052815180820383018152606082018084528151918501919091206001547f3f15457f0000000000000000000000000000000000000000000000000000000090925292519294506001600160a01b031692633f15457f92606480840193829003018186803b1580156110e357600080fd5b505afa1580156110f7573d6000803e3d6000fd5b505050506040513d602081101561110d57600080fd5b5051604080517f1896f70a000000000000000000000000000000000000000000000000000000008152600481018490526001600160a01b038b8116602483015291519190921691631896f70a91604480830192600092919082900301818387803b15801561117a57600080fd5b505af115801561118e573d6000803e3d6000fd5b505050506001600160a01b0387161561121157876001600160a01b031663d5fa2b0082896040518363ffffffff1660e01b815260040180838152602001826001600160a01b0316815260200192505050600060405180830381600087803b1580156111f857600080fd5b505af115801561120c573d6000803e3d6000fd5b505050505b600154604080517f28ed4f6c000000000000000000000000000000000000000000000000000000008152600481018690526001600160a01b038e81166024830152915191909216916328ed4f6c91604480830192600092919082900301818387803b15801561127f57600080fd5b505af1158015611293573d6000803e3d6000fd5b50505050600160009054906101000a90046001600160a01b03166001600160a01b03166323b872dd308d866040518463ffffffff1660e01b815260040180846001600160a01b03168152602001836001600160a01b031681526020018281526020019350505050600060405180830381600087803b15801561131457600080fd5b505af1158015611328573d6000803e3d6000fd5b50505050506113d2565b6001600160a01b0386161561134657600080fd5b60015460408051633f2891eb60e21b8152600481018590526001600160a01b038d81166024830152604482018d90529151919092169163fca247ac9160648083019260209291908290030181600087803b1580156113a357600080fd5b505af11580156113b7573d6000803e3d6000fd5b505050506040513d60208110156113cd57600080fd5b505190505b896001600160a01b0316837fca6abbe9d7f11422cb6ca7629fbf6fe9efb1c621f71ce8f02b9f2a230097404f8d87856040518080602001848152602001838152602001828103825285818151815260200191508051906020019080838360005b8381101561144a578181015183820152602001611432565b50505050905090810190601f1680156114775780820380516001836020036101000a031916815260200191505b5094505050505060405180910390a3833411156114bf5760405133903486900380156108fc02916000818181858888f193505050501580156114bd573d6000803e3d6000fd5b505b5050505050505050505050565b8051600090819081905b808210156116375760008583815181106114ec57fe5b01602001516001600160f81b03191690507f80000000000000000000000000000000000000000000000000000000000000008110156115305760018301925061162b565b7fe0000000000000000000000000000000000000000000000000000000000000006001600160f81b03198216101561156d5760028301925061162b565b7ff0000000000000000000000000000000000000000000000000000000000000006001600160f81b0319821610156115aa5760038301925061162b565b7ff8000000000000000000000000000000000000000000000000000000000000006001600160f81b0319821610156115e75760048301925061162b565b7ffc000000000000000000000000000000000000000000000000000000000000006001600160f81b0319821610156116245760058301925061162b565b6006830192505b506001909201916114d6565b50909392505050565b6001600160a01b03811661165357600080fd5b600080546040516001600160a01b03808516939216917f8be0079c531659141344cd1fd0a4f28419497f9722a3daafe3b4186f6b6457e091a36000805473ffffffffffffffffffffffffffffffffffffffff19166001600160a01b0392909216919091179055565b600354600082815260056020526040812054909142910111156116dd57600080fd5b600454600083815260056020526040902054429101116116fc57600080fd5b61170584610df3565b61170e57600080fd5b60008281526005602052604081208190556117298585610ba1565b90506224ea0084101561173b57600080fd5b80341015610f0857600080fdfea2646970667358221220ac2c47c0bebc6ff7182df3f575463030d8ea8de67cd32fd517a81e0db193eb0264736f6c63430007040033",
  "devdoc": {
    "details": "A registrar controller for registering and renewing names at fixed cost.",
    "kind": "dev",
    "methods": {
      "isOwner()": {
        "returns": {
          "_0": "true if `msg.sender` is the owner of the contract."
        }
      },
      "owner()": {
        "returns": {
          "_0": "the address of the owner."
        }
      },
      "renounceOwnership()": {
        "details": "Allows the current owner to relinquish control of the contract."
      },
      "transferOwnership(address)": {
        "details": "Allows the current owner to transfer control of the contract to a newOwner.",
        "params": {
          "newOwner": "The address to transfer ownership to."
        }
      }
    },
    "version": 1
  },
  "userdoc": {
    "kind": "user",
    "methods": {
      "renounceOwnership()": {
        "notice": "Renouncing to ownership will leave the contract without an owner. It will not be possible to call the functions with the `onlyOwner` modifier anymore."
      }
    },
    "version": 1
  },
  "storageLayout": {
    "storage": [
      {
        "astId": 2418,
        "contract": "contracts/ETHRegistrarController.sol:ETHRegistrarController",
        "label": "_owner",
        "offset": 0,
        "slot": "0",
        "type": "t_address"
      },
      {
        "astId": 1543,
        "contract": "contracts/ETHRegistrarController.sol:ETHRegistrarController",
        "label": "base",
        "offset": 0,
        "slot": "1",
        "type": "t_contract(BaseRegistrar)108"
      },
      {
        "astId": 1545,
        "contract": "contracts/ETHRegistrarController.sol:ETHRegistrarController",
        "label": "prices",
        "offset": 0,
        "slot": "2",
        "type": "t_contract(PriceOracle)1145"
      },
      {
        "astId": 1547,
        "contract": "contracts/ETHRegistrarController.sol:ETHRegistrarController",
        "label": "minCommitmentAge",
        "offset": 0,
        "slot": "3",
        "type": "t_uint256"
      },
      {
        "astId": 1549,
        "contract": "contracts/ETHRegistrarController.sol:ETHRegistrarController",
        "label": "maxCommitmentAge",
        "offset": 0,
        "slot": "4",
        "type": "t_uint256"
      },
      {
        "astId": 1553,
        "contract": "contracts/ETHRegistrarController.sol:ETHRegistrarController",
        "label": "commitments",
        "offset": 0,
        "slot": "5",
        "type": "t_mapping(t_bytes32,t_uint256)"
      }
    ],
    "types": {
      "t_address": {
        "encoding": "inplace",
        "label": "address",
        "numberOfBytes": "20"
      },
      "t_bytes32": {
        "encoding": "inplace",
        "label": "bytes32",
        "numberOfBytes": "32"
      },
      "t_contract(BaseRegistrar)108": {
        "encoding": "inplace",
        "label": "contract BaseRegistrar",
        "numberOfBytes": "20"
      },
      "t_contract(PriceOracle)1145": {
        "encoding": "inplace",
        "label": "contract PriceOracle",
        "numberOfBytes": "20"
      },
      "t_mapping(t_bytes32,t_uint256)": {
        "encoding": "mapping",
        "key": "t_bytes32",
        "label": "mapping(bytes32 => uint256)",
        "numberOfBytes": "32",
        "value": "t_uint256"
      },
      "t_uint256": {
        "encoding": "inplace",
        "label": "uint256",
        "numberOfBytes": "32"
      }
    }
  }
}